{
  "contractName": "EthMessaging",
  "abi": [
    {
      "anonymous": false,
      "inputs": [
        {
          "indexed": true,
          "name": "sender",
          "type": "address"
        },
        {
          "indexed": true,
          "name": "receiver",
          "type": "address"
        },
        {
          "indexed": false,
          "name": "time",
          "type": "uint256"
        },
        {
          "indexed": false,
          "name": "hash",
          "type": "string"
        }
      ],
      "name": "MessageSent",
      "type": "event"
    },
    {
      "anonymous": false,
      "inputs": [
        {
          "indexed": true,
          "name": "sender",
          "type": "address"
        },
        {
          "indexed": false,
          "name": "key",
          "type": "string"
        }
      ],
      "name": "PublicKeyUpdated",
      "type": "event"
    },
    {
      "constant": false,
      "inputs": [
        {
          "name": "key",
          "type": "string"
        }
      ],
      "name": "setPublicKey",
      "outputs": [],
      "payable": false,
      "stateMutability": "nonpayable",
      "type": "function"
    },
    {
      "constant": false,
      "inputs": [
        {
          "name": "to",
          "type": "address"
        },
        {
          "name": "hash",
          "type": "string"
        }
      ],
      "name": "sendMessage",
      "outputs": [],
      "payable": false,
      "stateMutability": "nonpayable",
      "type": "function"
    },
    {
      "constant": true,
      "inputs": [
        {
          "name": "who",
          "type": "address"
        }
      ],
      "name": "lastIndex",
      "outputs": [
        {
          "name": "",
          "type": "uint256"
        }
      ],
      "payable": false,
      "stateMutability": "view",
      "type": "function"
    },
    {
      "constant": true,
      "inputs": [
        {
          "name": "who",
          "type": "address"
        }
      ],
      "name": "getLastMessage",
      "outputs": [
        {
          "name": "",
          "type": "address"
        },
        {
          "name": "",
          "type": "string"
        },
        {
          "name": "",
          "type": "uint256"
        }
      ],
      "payable": false,
      "stateMutability": "view",
      "type": "function"
    },
    {
      "constant": true,
      "inputs": [
        {
          "name": "who",
          "type": "address"
        },
        {
          "name": "index",
          "type": "uint256"
        }
      ],
      "name": "getMessageByIndex",
      "outputs": [
        {
          "name": "",
          "type": "address"
        },
        {
          "name": "",
          "type": "string"
        },
        {
          "name": "",
          "type": "uint256"
        }
      ],
      "payable": false,
      "stateMutability": "view",
      "type": "function"
    },
    {
      "constant": true,
      "inputs": [
        {
          "name": "who",
          "type": "address"
        }
      ],
      "name": "getPublicKey",
      "outputs": [
        {
          "name": "key",
          "type": "string"
        }
      ],
      "payable": false,
      "stateMutability": "view",
      "type": "function"
    }
  ],
  "bytecode": "0x608060405234801561001057600080fd5b50611209806100206000396000f300608060405260043610610078576000357c0100000000000000000000000000000000000000000000000000000000900463ffffffff1680634e6bd1c01461007d5780636f6fc0771461017d578063857cdbb8146101b8578063de6f24bb14610274578063e0c01bfe146102cf578063edc8f0d8146103c5575b600080fd5b34801561008957600080fd5b506100c8600480360381019080803573ffffffffffffffffffffffffffffffffffffffff1690602001909291908035906020019092919050505061041c565b604051808473ffffffffffffffffffffffffffffffffffffffff1673ffffffffffffffffffffffffffffffffffffffff16815260200180602001838152602001828103825284818151815260200191508051906020019080838360005b83811015610140578082015181840152602081019050610125565b50505050905090810190601f16801561016d5780820380516001836020036101000a031916815260200191505b5094505050505060405180910390f35b34801561018957600080fd5b506101b66004803603810190808035906020019082018035906020019190919293919293905050506106cb565b005b3480156101c457600080fd5b506101f9600480360381019080803573ffffffffffffffffffffffffffffffffffffffff169060200190929190505050610801565b6040518080602001828103825283818151815260200191508051906020019080838360005b8381101561023957808201518184015260208101905061021e565b50505050905090810190601f1680156102665780820380516001836020036101000a031916815260200191505b509250505060405180910390f35b34801561028057600080fd5b506102cd600480360381019080803573ffffffffffffffffffffffffffffffffffffffff1690602001909291908035906020019082018035906020019190919293919293905050506108e2565b005b3480156102db57600080fd5b50610310600480360381019080803573ffffffffffffffffffffffffffffffffffffffff169060200190929190505050610dae565b604051808473ffffffffffffffffffffffffffffffffffffffff1673ffffffffffffffffffffffffffffffffffffffff16815260200180602001838152602001828103825284818151815260200191508051906020019080838360005b8381101561038857808201518184015260208101905061036d565b50505050905090810190601f1680156103b55780820380516001836020036101000a031916815260200191505b5094505050505060405180910390f35b3480156103d157600080fd5b50610406600480360381019080803573ffffffffffffffffffffffffffffffffffffffff1690602001909291905050506110f0565b6040518082815260200191505060405180910390f35b6000606060008060008673ffffffffffffffffffffffffffffffffffffffff1673ffffffffffffffffffffffffffffffffffffffff1681526020019081526020016000205484111515156104fe576040517f08c379a00000000000000000000000000000000000000000000000000000000081526004018080602001828103825260288152602001807f696e64657820697320626967676572207468616e206c617374206d657373616781526020017f6520696e6465782e00000000000000000000000000000000000000000000000081525060400191505060405180910390fd5b600160008673ffffffffffffffffffffffffffffffffffffffff1673ffffffffffffffffffffffffffffffffffffffff168152602001908152602001600020600060018603815260200190815260200160002060000160009054906101000a900473ffffffffffffffffffffffffffffffffffffffff16600160008773ffffffffffffffffffffffffffffffffffffffff1673ffffffffffffffffffffffffffffffffffffffff1681526020019081526020016000206000600187038152602001908152602001600020600101600160008873ffffffffffffffffffffffffffffffffffffffff1673ffffffffffffffffffffffffffffffffffffffff168152602001908152602001600020600060018803815260200190815260200160002060020154818054600181600116156101000203166002900480601f0160208091040260200160405190810160405280929190818152602001828054600181600116156101000203166002900480156106b75780601f1061068c576101008083540402835291602001916106b7565b820191906000526020600020905b81548152906001019060200180831161069a57829003601f168201915b505050505091509250925092509250925092565b600082829050111515610746576040517f08c379a00000000000000000000000000000000000000000000000000000000081526004018080602001828103825260188152602001807f6b65792073686f756c64206e6f7420626520656d7074792e000000000000000081525060200191505060405180910390fd5b8181600260003373ffffffffffffffffffffffffffffffffffffffff1673ffffffffffffffffffffffffffffffffffffffff1681526020019081526020016000209190610794929190611138565b503373ffffffffffffffffffffffffffffffffffffffff167fa850082d2fb101274de37494dc864e9277de33c04415c7ad9db57592c60511a58383604051808060200182810382528484828181526020019250808284378201915050935050505060405180910390a25050565b6060600260008373ffffffffffffffffffffffffffffffffffffffff1673ffffffffffffffffffffffffffffffffffffffff1681526020019081526020016000208054600181600116156101000203166002900480601f0160208091040260200160405190810160405280929190818152602001828054600181600116156101000203166002900480156108d65780601f106108ab576101008083540402835291602001916108d6565b820191906000526020600020905b8154815290600101906020018083116108b957829003601f168201915b50505050509050919050565b600073ffffffffffffffffffffffffffffffffffffffff168373ffffffffffffffffffffffffffffffffffffffff1614151515610987576040517f08c379a000000000000000000000000000000000000000000000000000000000815260040180806020018281038252601c8152602001807f746f2073686f756c64206e6f7420626520616464726573732830292e0000000081525060200191505060405180910390fd5b6000600260008573ffffffffffffffffffffffffffffffffffffffff1673ffffffffffffffffffffffffffffffffffffffff168152602001908152602001600020805460018160011615610100020316600290049050111515610a52576040517f08c379a000000000000000000000000000000000000000000000000000000000815260040180806020018281038252601a8152602001807f746f2073686f756c642068617665207075626c6963206b65792e00000000000081525060200191505060405180910390fd5b600082829050111515610acd576040517f08c379a00000000000000000000000000000000000000000000000000000000081526004018080602001828103825260198152602001807f686173682073686f756c64206e6f7420626520656d7074792e0000000000000081525060200191505060405180910390fd5b33600160008573ffffffffffffffffffffffffffffffffffffffff1673ffffffffffffffffffffffffffffffffffffffff16815260200190815260200160002060008060008773ffffffffffffffffffffffffffffffffffffffff1673ffffffffffffffffffffffffffffffffffffffff16815260200190815260200160002054815260200190815260200160002060000160006101000a81548173ffffffffffffffffffffffffffffffffffffffff021916908373ffffffffffffffffffffffffffffffffffffffff1602179055508181600160008673ffffffffffffffffffffffffffffffffffffffff1673ffffffffffffffffffffffffffffffffffffffff16815260200190815260200160002060008060008873ffffffffffffffffffffffffffffffffffffffff1673ffffffffffffffffffffffffffffffffffffffff1681526020019081526020016000205481526020019081526020016000206001019190610c3d929190611138565b5042600160008573ffffffffffffffffffffffffffffffffffffffff1673ffffffffffffffffffffffffffffffffffffffff16815260200190815260200160002060008060008773ffffffffffffffffffffffffffffffffffffffff1673ffffffffffffffffffffffffffffffffffffffff168152602001908152602001600020548152602001908152602001600020600201819055506000808473ffffffffffffffffffffffffffffffffffffffff1673ffffffffffffffffffffffffffffffffffffffff168152602001908152602001600020600081548092919060010191905055508273ffffffffffffffffffffffffffffffffffffffff163373ffffffffffffffffffffffffffffffffffffffff167f0b6aa398652c861e442761200431647f8622c16488a180e5354301cdcfb3371542858560405180848152602001806020018281038252848482818152602001925080828437820191505094505050505060405180910390a3505050565b600060606000806000808673ffffffffffffffffffffffffffffffffffffffff1673ffffffffffffffffffffffffffffffffffffffff16815260200190815260200160002054111515610e69576040517f08c379a000000000000000000000000000000000000000000000000000000000815260040180806020018281038252601e8152602001807f77686f20646f6573206e6f74206861766520616e79206d6573736167652e000081525060200191505060405180910390fd5b600160008573ffffffffffffffffffffffffffffffffffffffff1673ffffffffffffffffffffffffffffffffffffffff168152602001908152602001600020600060016000808873ffffffffffffffffffffffffffffffffffffffff1673ffffffffffffffffffffffffffffffffffffffff1681526020019081526020016000205403815260200190815260200160002060000160009054906101000a900473ffffffffffffffffffffffffffffffffffffffff16600160008673ffffffffffffffffffffffffffffffffffffffff1673ffffffffffffffffffffffffffffffffffffffff168152602001908152602001600020600060016000808973ffffffffffffffffffffffffffffffffffffffff1673ffffffffffffffffffffffffffffffffffffffff16815260200190815260200160002054038152602001908152602001600020600101600160008773ffffffffffffffffffffffffffffffffffffffff1673ffffffffffffffffffffffffffffffffffffffff168152602001908152602001600020600060016000808a73ffffffffffffffffffffffffffffffffffffffff1673ffffffffffffffffffffffffffffffffffffffff1681526020019081526020016000205403815260200190815260200160002060020154818054600181600116156101000203166002900480601f0160208091040260200160405190810160405280929190818152602001828054600181600116156101000203166002900480156110dc5780601f106110b1576101008083540402835291602001916110dc565b820191906000526020600020905b8154815290600101906020018083116110bf57829003601f168201915b505050505091509250925092509193909250565b60008060008373ffffffffffffffffffffffffffffffffffffffff1673ffffffffffffffffffffffffffffffffffffffff168152602001908152602001600020549050919050565b828054600181600116156101000203166002900490600052602060002090601f016020900481019282601f1061117957803560ff19168380011785556111a7565b828001600101855582156111a7579182015b828111156111a657823582559160200191906001019061118b565b5b5090506111b491906111b8565b5090565b6111da91905b808211156111d65760008160009055506001016111be565b5090565b905600a165627a7a72305820b1c09ce8c8937ed22b9ccb8711968e618ec46c0bce6dd0a6d8757ab9d405a2190029",
  "source": "pragma solidity ^0.4.24;\n\nimport \"./IERCMessagingSystemProtocol.sol\";\n\n\n/**\n * @title EthMessaging.\n * @notice Contract for sending messages between accounts.\n */\ncontract EthMessaging is IERCMessagingSystemProtocol {\n\n    /**\n     * @notice Message struct.\n     */\n    struct Message {\n        address from;\n        string hash;\n        uint256 time;\n    }\n\n    /**\n     * @notice Mapping for storing address last message index.\n     */\n    mapping(address => uint256) private _lastMsgIndex;\n\n    /**\n     * @notice Mapping for storing address messages.\n     */\n    mapping(address => mapping(uint256 => Message)) private _messages;\n\n    /**\n     * @notice Mapping for storing address public keys.\n     */\n    mapping(address => string) private _keys;\n\n    /**\n     * @notice Sets public key for sender.\n     *\n     * @param key Public key for decrypting messages.\n     */\n    function setPublicKey(string key) external {\n        require(bytes(key).length > 0, \"key should not be empty.\");\n        _keys[msg.sender] = key;\n        emit PublicKeyUpdated(msg.sender, key);\n    }\n\n    /**\n     * @notice Sends message hash to given address.\n     * The receiver needs to have public key.\n     *\n     * @param to Receiver address. Should not be address(0).\n     * @param hash Message hash. Should not be empty\n     */\n    function sendMessage(address to, string hash) external {\n        require(to != address(0), \"to should not be address(0).\");\n        require(bytes(_keys[to]).length > 0, \"to should have public key.\");\n        require(bytes(hash).length > 0, \"hash should not be empty.\");\n        _messages[to][_lastMsgIndex[to]].from = msg.sender;\n        _messages[to][_lastMsgIndex[to]].hash = hash;\n        _messages[to][_lastMsgIndex[to]].time = now;\n        _lastMsgIndex[to]++;\n        emit MessageSent(\n            msg.sender,\n            to,\n            now,\n            hash\n        );\n    }\n\n    /**\n     * @notice Gets last message index.\n     *\n     * @param who Message owner.\n     *\n     * @return uint256 last message index.\n     */\n    function lastIndex(address who) public view returns (uint256) {\n        return _lastMsgIndex[who];\n    }\n\n    /**\n     * @notice Gets last message.\n     *\n     * @param who Message owner. Should have some message.\n     *\n     * @return sender address, message hash and message date.\n     */\n    function getLastMessage(address who) public view returns (address, string, uint256) {\n        require(_lastMsgIndex[who] > 0, \"who does not have any message.\");\n        return (\n            _messages[who][_lastMsgIndex[who] - 1].from,\n            _messages[who][_lastMsgIndex[who] - 1].hash,\n            _messages[who][_lastMsgIndex[who] - 1].time\n        );\n    }\n\n    /**\n     * @notice Gets message by index.\n     *\n     * @param who Message owner.\n     * @param index Message index. Should be a correct index.\n     *\n     * @return sender address, message hash and message date.\n     */\n    function getMessageByIndex(address who, uint256 index) public view returns (address, string, uint256) {\n        require(index <= _lastMsgIndex[who], \"index is bigger than last message index.\");\n        return (\n            _messages[who][index - 1].from,\n            _messages[who][index - 1].hash,\n            _messages[who][index - 1].time\n        );\n    }\n\n    /**\n     * @notice Gets address public key.\n     *\n     * @param who Public key owner.\n     *\n     * @return adress public key.\n     */\n    function getPublicKey(address who) public view returns (string key) {\n        return _keys[who];\n    }\n}\n",
  "sourcePath": "/home/luis/Workspace/eth-messaging/contracts/EthMessaging.sol",
  "compiler": {
    "name": "solc",
    "version": "0.4.24+commit.e67f0147.Emscripten.clang"
  },
  "schemaVersion": "2.0.1",
  "updatedAt": "2018-11-27T13:56:01.969Z"
}